:0300000002026198
:0C026100787FE4F6D8FD758111020003DF
:1000030075802CC2A67FE87E0312023CD2A6C2A54D
:100013007FE87E0312023CD2A5C2A47FE87E0312CE
:10002300023CD2A4C2A37FE87E0312023C750E01F8
:10003300750FF4C2A375802C120238D2A3C2A61284
:100043000235D2A6E50F150F7002150ED3E50F94F6
:1000530000E50E940050DC750E01750FF4C2A37514
:10006300802C120238D2A3C2A5120235D2A5E50F05
:10007300150F7002150ED3E50F9400E50E94005092
:10008300DC750E01750FF4C2A375802C12023812B1
:100093000231D2A4E50F150F7002150ED3E50F94AC
:1000A30000E50E940050E0750E01750F5EC2A37556
:1000B300802C120238120231D2A4C2A675807D129E
:1000C3000238D2A6E50F150F7002150ED3E50F9473
:1000D30000E50E940050D6750E01750F5EC2A37530
:1000E300802C120238120231D2A4C2A67580AF123C
:1000F3000238D2A6E50F150F7002150ED3E50F9443
:1001030000E50E940050D6750E01750F5EC2A375FF
:10011300802C120238120231D2A4C2A575807D123E
:100123000238D2A5E50F150F7002150ED3E50F9413
:1001330000E50E940050D6750E01750F5EC2A375CF
:10014300802C120238120231D2A4C2A57580AF12DC
:100153000238D2A5E50F150F7002150ED3E50F94E3
:1001630000E50E940050D6750E01750F2CC2A375D1
:10017300802C120238120231D2A4C2A57580AF12AC
:100183000238D2A5C2A675807D120238D2A6E50F29
:10019300150F7002150ED3E50F9400E50E94005071
:1001A300CC750E00750FFAC2A375802C120238129B
:1001B3000231D2A4C2A57580AF120238D2A5C2A65D
:1001C3007580AF120238D2A6E50F150F7002150E17
:1001D300D3E50F9400E50E940050CC750E00750F17
:1001E300FAC2A375802C120238120231D2A4C2A51E
:1001F30075802D120238D2A5E50F150F7002150E6A
:10020300D3E50F9400E50E940050D675A0F77580E2
:100213002C12023875A0EF12023575A0DF75802D00
:0E02230012023875A0BF75800512023880DD0A
:0B023100D2A3C2A47580867F017E006E
:10023C00D3EF9400EE9400401B750C00750D6EE529
:10024C000D150D7002150CE50D450C70F2EF1F70BD
:05025C00DF1E80DC2222
:00000001FF
